:100000000C94BA000C94D7000C94D7000C94D70031
:100010000C94D7000C94D7000C94D7000C94D70004
:100020000C94D7000C94D7000C94B3030C94EB03FE
:100030000C94D7000C94D7000C94D7000C94D700E4
:100040000C94D7000C94D7000C94D7000C94D700D4
:100050000C94D7000C94D7000C94D7000C94D700C4
:100060000C94D7000C94D7000C94D7000C94D700B4
:100070000C94D7000C94D7000C94D7000C94D700A4
:100080000C94D7000C94D7000C94D7000C94D70094
:100090000C94D7000C94D7000C94D7000C94D70084
:1000A0000C94D7000C94D7000C94D70000010000EA
:1000B0005701120002000014014300030000100168
:1000C0000401030904F8001602030904E000160302
:1000D000030904D600080803300030003000000097
:1000E00016035500530042002000530065007200C3
:1000F000690061006C0000001603610074006D006F
:1001000065006700610033003200750034000000B4
:100110000403090409024300020100C0320904007B
:100120000001020201000524001001052401010163
:10013000042402060524060001070582031000407E
:1001400009040100020A0000000705030240000044
:10015000070584024000001201000202000010C0E6
:10016000167A040001010203010001C11201803668
:100170000181360011241FBECFEFDAE0DEBFCDBF14
:1001800011E0A0E0B1E0ECE7FCE002C005900D92C8
:10019000A831B107D9F721E0A8E1B1E001C01D9273
:1001A000AC31B207E1F70E94A0050C94FB050C945A
:1001B00000000E94EF0078940E9426018823E1F35A
:1001C0002FEF83ED90E3215080409040E1F700C095
:1001D000000008958091E80080FFFCCF089581E041
:1001E0008093D70080EA8093D80082E189BD09B46A
:1001F00000FEFDCF80E98093D8008091E0008E7FE3
:100200008093E00010921B01109218018CE0809303
:10021000E20008952FB7F89480911B01811103C06B
:1002200080E02FBF089583E08093E9008091F20081
:100230008111F7CF9091E80092FFF2CF892F807261
:1002400095FDEECF9BE69093E800EBCF80911B01EC
:1002500008959FB7F89480911B01811104C09FBF3E
:100260008FEF9FEF089583E08093E9002BE6809164
:10027000E80085FD05C082FFF2CF2093E800F7CFAC
:100280008091F1002091E80025FD03C02BE620932A
:10029000E8009FBF90E0089580911B01882359F0EA
:1002A0008FB7F89493E09093E9002BE69091E800E3
:1002B00095FD02C08FBF08952093E800F7CF90917D
:1002C0001B01911102C08FEF08959FB7F89424E0AD
:1002D0002093E90020911901222341F02091E800A8
:1002E00025FD02C09FBFEFCF109219012091E400BD
:1002F000275E34E04091E80045FD12C09FBF909119
:10030000E400921304C081E080931901DCCF909146
:100310001B019923C1F29FB7F8943093E900EACF0B
:100320008093F1008091E80085FD03C08AE380930B
:10033000E80085E080931A019FBF80E008959091C6
:100340001B01992351F09FB7F89424E02093E90012
:100350002091E80025FD03C09FBF8FEF0895809393
:10036000F1008091E80085FD03C08AE38093E800F6
:1003700085E080931A019FBF80E008959B01409122
:100380001B01411102C08FEF08954FB7F89454E05C
:100390005093E90050911901552341F05091E80024
:1003A00055FD02C04FBFEFCF1092190154E060E439
:1003B0007AE3A5E02115310511F480E00895E0917C
:1003C000E400E75EF091E800F5FD12C04FBF4091F8
:1003D000E4004E1304C081E080931901D4CF409112
:1003E0001B01442381F24FB7F8945093E900EACF00
:1003F000E091F200B62FBE1BB217130611F008F001
:10040000B22FEB2FF0E02E1B3F0BB13408F03FC1B1
:10041000E350FA4F0C94C005FC0181918093F100E8
:10042000CF01FC0181918093F100CF01FC0181910A
:100430008093F100CF01FC0181918093F100CF0105
:10044000FC0181918093F100CF01FC0181918093A7
:10045000F100CF01FC0181918093F100CF01FC01FB
:1004600081918093F100CF01FC0181918093F10093
:10047000CF01FC0181918093F100CF01FC018191BA
:100480008093F100CF01FC0181918093F100CF01B5
:10049000FC0181918093F100CF01FC018191809357
:1004A000F100CF01FC0181918093F100CF01FC01AB
:1004B00081918093F100CF01FC0181918093F10043
:1004C000CF01FC0181918093F100CF01FC0181916A
:1004D0008093F100CF01FC0181918093F100CF0165
:1004E000FC0181918093F100CF01FC018191809307
:1004F000F100CF01FC0181918093F100CF01FC015B
:1005000081918093F100CF01FC0181918093F100F2
:10051000CF01FC0181918093F100CF01FC01819119
:100520008093F100CF01FC0181918093F100CF0114
:10053000FC0181918093F100CF01FC0181918093B6
:10054000F100CF01FC0181918093F100CF01FC010A
:1005500081918093F100CF01FC0181918093F100A2
:10056000CF01FC0181918093F100CF01FC018191C9
:100570008093F100CF01FC0181918093F100CF01C4
:10058000FC0181918093F100CF01FC018191809366
:10059000F100CF01FC0181918093F100CF01FC01BA
:1005A00081918093F100CF01FC0181918093F10052
:1005B000CF01FC0181918093F100CF01FC01819179
:1005C0008093F100CF01FC0181918093F100CF0174
:1005D000FC0181918093F100CF01FC018191809316
:1005E000F100CF01FC0181918093F100CF01FC016A
:1005F00081918093F100CF01FC0181918093F10002
:10060000CF01FC0181918093F100CF01FC01819128
:100610008093F100CF01FC0181918093F100CF0123
:10062000FC0181918093F100CF01FC0181918093C5
:10063000F100CF01FC0181918093F100CF01FC0119
:1006400081918093F100CF01FC0181918093F100B1
:10065000CF01FC0181918093F100CF01FC018191D8
:100660008093F100CF01FC0181918093F100CF01D3
:10067000FC0181918093F100CF01FC018191809375
:10068000F100CF01FC0181918093F100CF01FC01C9
:1006900081918093F100CF01E091E800E5FF709334
:1006A000E800A0931A014FBF85CE8FB7F8949091C0
:1006B0001A01992341F094E09093E9009AE3909312
:1006C000E80010921A018FBF0895CF93DF9300D0F6
:1006D00000D0CDB7DEB78091000190910101A091CB
:1006E0000201B0910301BC01CD010F900F900F905A
:1006F0000F90DF91CF91089580910401089580912A
:1007000005010895809106010895809118010895CA
:100710009FB7F89420911B01211103C09FBF8FEF59
:10072000089522E02093E9002091E80025FFF6CF0C
:1007300021EA2093F10020E22093F1001092F100D1
:100740001092F1001092F1001092F10021E020933C
:10075000F1001092F1008093F1008AE38093E800A9
:100760009FBF80E008951F921FB61F9211248F93A0
:100770009F938091E1001092E10083FF11C01092DD
:10078000E90091E09093EB001092EC0092E19093DD
:10079000ED0098E09093F00010921B011092180168
:1007A00082FF13C080911B01882379F080911A0188
:1007B000882359F0815080931A01811106C084E08A
:1007C0008093E9008AE38093E8009F918F911F90C6
:1007D0001FBE1F9018951F920F920FB60F921124F3
:1007E000EF92FF920F931F932F933F934F935F933B
:1007F0006F937F938F939F93AF93BF93CF93DF9329
:10080000EF93FF931092E9008091E80083FF71C09D
:10081000D091F100C091F100E090F1008091F100E1
:10082000F82E0091F1008091F100182F2091F10035
:100830003091F10082EF8093E800C63009F065C086
:100840008CEA90E046ED50E0FC0165917491E6166B
:10085000F70609F049C0FC013296659174910617BC
:10086000170709F041C0FC01349645915491069652
:10087000FC0184912F3F310519F010F02FEF30E08B
:10088000281708F4822F3EEF9091E800292F257059
:10089000D9F392FD12C0982F813108F090E1FA014E
:1008A000292F21112CC0490F511D282F291B3093AE
:1008B000E800891322C0803100F5FF91EF91DF91AC
:1008C000CF91BF91AF919F918F917F916F915F91E8
:1008D0004F913F912F911F910F91FF90EF900F90AB
:1008E0000FBE0F901F90189507964817590709F0EB
:1008F000ABCF81E28093EB00E0CF822FC5CF649134
:100900006093F10021503196CCCFC53051F48EEF79
:100910008093E8000E94EA008E2D80688093E300B7
:10092000CCCFC93069F5D111E4CFE0921B01109210
:10093000180110921A018EEF8093E80021E089E6F9
:1009400091E02093E900AC014F5F5F4FFC013491CF
:100950003093EB00332391F0FA0144914093EC0083
:100960003196E4910396E093ED002F5F253049F72F
:100970008EE18093EA001092EA009FCFCA01F5CF82
:10098000C83069F4D03809F0B4CF0E94EA008091F1
:100990001B018093F1008EEF8093E8008ECFC1326F
:1009A00089F4D13A09F0A5CF0E94EA0080E091E0F5
:1009B000FC01019620812093F100F1E087309F0730
:1009C000B9F7E9CFC032B1F4D13209F092CF8091BA
:1009D000E80082FFFCCF80E091E0FC0101962091CD
:1009E000F100208321E087309207B9F78BEF8093E5
:1009F000E800D1CFC23241F4D13209F07ACFE0928F
:100A000018010E94EA00C7CFC11112C00E94EA007B
:100A1000D23849F40093E900C091EB00C5FBCC2724
:100A2000C0F91092E900C093F1001092F100B3CF29
:100A30008C2F8D7F813009F05CCFD23009F059CFF7
:100A4000EF2809F056CF0F778FEF800F843008F032
:100A500050CF8EEF8093E8000093E900C33009F493
:100A600048CF89E18093EB0081E090E001C0880FDE
:100A70000A95EAF77ECFCF93DF93EC018991882323
:100A800021F00E945F01CE01F8CFDF91CF91089550
:100A9000CF93DF93CDB7DEB72A970FB6F894DEBFBA
:100AA0000FBECDBF4AE0BE016F5F7F4F0E94C605FB
:100AB000CE0101960E943B052A960FB6F894DEBF40
:100AC0000FBECDBFDF91CF910895EF92FF920F93AC
:100AD0001F93CF93DF93D82FF92EE62EC0E0CE15CB
:100AE00040F08C2FDF91CF911F910F91FF90EF90ED
:100AF00008950E9429019C012F3F3207B9F02D3043
:100B0000310579F32A30310561F3C90180978F35BA
:100B1000910528F70D2F1F2DF80121938F01822FAA
:100B20000E945F01CF5FD02FF12ED9CF80911B01A2
:100B3000882321F08091180180FDD1CFCFEFD1CF54
:100B40003F9A209A0E94D900D0E0C0E00E9485031D
:100B500080FFFCCF87E091E00E943B05CE010E9420
:100B6000480585E191E00E943B0521962FEF83ED3A
:100B700090E3215080409040E1F700C00000E6CFB4
:100B8000EE0FFF1F0590F491E02D0994BB274A302A
:100B900031F4992322F4BDE2909581959F4F0C94F6
:100BA000D205BB27FB015527AA27880F991FAA1F2B
:100BB000A41710F0A41B83955051B9F7A05DAA3378
:100BC00008F0A95DA193009779F7B111B193119243
:100BD000CB010C94EB05DC01FC01672F71917723AD
:100BE000E1F7329704C07C916D9370836291AE17E8
:100BF000BF07C8F30895F894FFCF4C03470342039F
:100C00003D03380333032E03290324031F031A0370
:100C1000150310030B0306030103FC02F702F202A3
:100C2000ED02E802E302DE02D902D402CF02CA02D8
:100C3000C502C002BB02B602B102AC02A702A20208
:100C40009D02980293028E02890284027F027A0238
:100C5000750270026B02660261025C025702520268
:100C60004D02480243023E02390234022F022A0298
:0C0C7000250220021B02160211020C02D9
:100C7C0000E1000000000848656C6C6F20576F7233
:080C8C006C643A20000A00002C
:00000001FF
