:100000000C9456000C9460000C9460000C946000FA
:100010000C9460000C9460000C9460000C946000E0
:100020000C9460000C9460000C9460000C946000D0
:100030000C9460000C9460000C9460000C946000C0
:100040000C9460000C9462000C9460000C946000AE
:100050000C9460000C9460000C9460000C946000A0
:100060000C9460000C9460000C9460000C94600090
:100070000C9460000C9460000C9460000C94600080
:100080000C9460000C9460000C9460000C94600070
:100090000C9460000C9460000C9460000C94600060
:1000A0000C9460000C9460000C94600011241FBE3E
:1000B000CFEFDAE0DEBFCDBF0E9481000C94850057
:1000C0000C9400008F938FB78F9388B1805888B9B4
:1000D0008F918FBF8F911895E1E8F0E08081886063
:1000E0008083AFE6B0E08C9182608C9388E09DE3E2
:1000F00090938900809388008081856080837894C4
:0E01000008953F9A0E946C00FFCFF894FFCF45
:00000001FF
