:100000000C94BA000C94D7000C94D7000C94D70031
:100010000C94D7000C94D7000C94D7000C94D70004
:100020000C94D7000C94D7000C9405050C943D0556
:100030000C94D7000C94D7000C94D7000C94D700E4
:100040000C94D7000C94D7000C94D7000C94D700D4
:100050000C94D7000C94D7000C94D7000C94D700C4
:100060000C94D7000C94E5000C94D7000C941B0161
:100070000C94D7000C94D7000C94D7000C94D700A4
:100080000C94D7000C94D7000C94D7000C94D70094
:100090000C94D7000C94D7000C94D7000C94D70084
:1000A0000C94D7000C94D7000C94D70000010000EA
:1000B0005701120002000014014300030000100168
:1000C0000401030904F8001602030904E000160302
:1000D000030904D600080803300030003000000097
:1000E00016035500530042002000530065007200C3
:1000F000690061006C0000001603610074006D006F
:1001000065006700610033003200750034000000B4
:100110000403090409024300020100C0320904007B
:100120000001020201000524001001052401010163
:10013000042402060524060001070582031000407E
:1001400009040100020A0000000705030240000044
:10015000070584024000001201000202000010C0E6
:10016000167A040001010203010001C11201803668
:100170000181360011241FBECFEFDAE0DEBFCDBF14
:1001800011E0A0E0B1E0E8E6FFE002C005900D92CA
:10019000AA32B107D9F721E0AAE2B1E001C01D926D
:1001A000A63BB207E1F70E94CE060C9471070C94AF
:1001B0000000E0910101F0910201099540E060E04A
:1001C00072EC81E090E00C9421011F921FB61F9207
:1001D00011248F939F93EF93FF93E0912C01F09163
:1001E0002D018091CE00E05DFE4F808380912E0135
:1001F00090912F01019690932F0180932E01809171
:100200002C0190912D01019690932D0180932C014A
:1002100080912C0190912D018038910520F0109251
:100220002D0110922C01FF91EF919F918F911F90C2
:100230001FBE1F9018958F9381E0809300018F91CE
:100240001895CF93DF9300D000D0CDB7DEB79B01D8
:10025000592FA8E0411101C0A0E11092CD00B0E0FB
:10026000482F0E94220769837A838B839C8360E0F6
:1002700074E284EF90E029813A814B815C810E9495
:10028000FA0681E0213009F480E08093CC0080916F
:10029000C900886D8093C9008EE08093CA0078946D
:1002A0000F900F900F900F90DF91CF910895909144
:1002B00000019923E1F3109200018093CE0008958C
:1002C0000F931F93CF93DF93EC018C01060F171F41
:1002D000C017D10729F4DF91CF911F910F91089595
:1002E00089910E945701F4CFCF93DF93EC0189915C
:1002F0000E94570188818111FACFDF91CF910C9430
:10030000570180912E0190912F01089520912A018B
:1003100030912B01F901E05DFE4F80812F5F3F4F4F
:1003200030932B0120932A0140912E0150912F01EF
:100330004150510950932F0140932E01203831052F
:1003400020F010922B0110922A0108958091E8006C
:1003500080FFFCCF089581E08093D70080EA8093EE
:10036000D80082E189BD09B400FEFDCF80E9809309
:10037000D8008091E0008E7F8093E0001092B3015E
:100380001092B0018CE08093E200789408950E946E
:10039000AB018091B3018823E1F32FEF83ED90E36C
:1003A000215080409040E1F700C0000008952FB731
:1003B000F8948091B301811103C080E02FBF0895AC
:1003C00083E08093E9008091F2008111F7CF909152
:1003D000E80092FFF2CF892F807295FDEECF9BE669
:1003E0009093E800EBCF8091B30108959FB7F89404
:1003F0008091B301811104C09FBF8FEF9FEF0895DB
:1004000083E08093E9002BE68091E80085FD05C03C
:1004100082FFF2CF2093E800F7CF8091F100209186
:10042000E80025FD03C02BE62093E8009FBF90E085
:1004300008958091B301882359F08FB7F89493E021
:100440009093E9002BE69091E80095FD02C08FBFE4
:1004500008952093E800F7CF9091B301911102C065
:100460008FEF08959FB7F89424E02093E90020913E
:10047000B101222341F02091E80025FD02C09FBF79
:10048000EFCF1092B1012091E400275E34E040915B
:10049000E80045FD12C09FBF9091E400921304C094
:1004A00081E08093B101DCCF9091B3019923C1F237
:1004B0009FB7F8943093E900EACF8093F1008091E0
:1004C000E80085FD03C08AE38093E80085E080931F
:1004D000B2019FBF80E00895CF93DF93EC01899133
:1004E000882321F00E942C02CE01F8CFDF91CF911A
:1004F000089581E291E00C946C02CF93DF93CDB725
:10050000DEB72A970FB6F894DEBF0FBECDBF4AE024
:10051000BE016F5F7F4F0E943C07CE0101960E9493
:100520006C022A960FB6F894DEBF0FBECDBFDF91E6
:10053000CF910895CF93DF93CDB7DEB763970FB612
:10054000F894DEBF0FBECDBF90E3998392E69A8305
:10055000FE0133964FE050E090E09C01042E02C073
:10056000359527950A94E2F721703327205D3F4F98
:1005700021934150510988F71B8ACE0101960E94B0
:100580006C0263960FB6F894DEBF0FBECDBFDF914D
:10059000CF9108950F931F93CF93DF9300D000D096
:1005A0000F92CDB7DEB7182F00E3098388E78A835F
:1005B00040E1BE016D5F7F4F812F90E00E943C07BC
:1005C000103108F40B83CE0101960E946C020F904B
:1005D0000F900F900F900F90DF91CF911F910F917F
:1005E00008959091B301992351F09FB7F89424E0B6
:1005F0002093E9002091E80025FD03C09FBF8FEF05
:1006000008958093F1008091E80085FD03C08AE39E
:100610008093E80085E08093B2019FBF80E0089559
:100620009B014091B301411102C08FEF08954FB774
:10063000F89454E05093E9005091B101552341F0F2
:100640005091E80055FD02C04FBFEFCF1092B101AD
:1006500054E060E47AE3A5E02115310511F480E06F
:100660000895E091E400E75EF091E800F5FD12C026
:100670004FBF4091E4004E1304C081E08093B1016C
:10068000D4CF4091B301442381F24FB7F8945093F3
:10069000E900EACFE091F200B62FBE1BB2171306B5
:1006A00011F008F0B22FEB2FF0E02E1B3F0BB1340E
:1006B00008F03FC1ED58F84F0C941C07FC018191E4
:1006C0008093F100CF01FC0181918093F100CF0173
:1006D000FC0181918093F100CF01FC018191809315
:1006E000F100CF01FC0181918093F100CF01FC0169
:1006F00081918093F100CF01FC0181918093F10001
:10070000CF01FC0181918093F100CF01FC01819127
:100710008093F100CF01FC0181918093F100CF0122
:10072000FC0181918093F100CF01FC0181918093C4
:10073000F100CF01FC0181918093F100CF01FC0118
:1007400081918093F100CF01FC0181918093F100B0
:10075000CF01FC0181918093F100CF01FC018191D7
:100760008093F100CF01FC0181918093F100CF01D2
:10077000FC0181918093F100CF01FC018191809374
:10078000F100CF01FC0181918093F100CF01FC01C8
:1007900081918093F100CF01FC0181918093F10060
:1007A000CF01FC0181918093F100CF01FC01819187
:1007B0008093F100CF01FC0181918093F100CF0182
:1007C000FC0181918093F100CF01FC018191809324
:1007D000F100CF01FC0181918093F100CF01FC0178
:1007E00081918093F100CF01FC0181918093F10010
:1007F000CF01FC0181918093F100CF01FC01819137
:100800008093F100CF01FC0181918093F100CF0131
:10081000FC0181918093F100CF01FC0181918093D3
:10082000F100CF01FC0181918093F100CF01FC0127
:1008300081918093F100CF01FC0181918093F100BF
:10084000CF01FC0181918093F100CF01FC018191E6
:100850008093F100CF01FC0181918093F100CF01E1
:10086000FC0181918093F100CF01FC018191809383
:10087000F100CF01FC0181918093F100CF01FC01D7
:1008800081918093F100CF01FC0181918093F1006F
:10089000CF01FC0181918093F100CF01FC01819196
:1008A0008093F100CF01FC0181918093F100CF0191
:1008B000FC0181918093F100CF01FC018191809333
:1008C000F100CF01FC0181918093F100CF01FC0187
:1008D00081918093F100CF01FC0181918093F1001F
:1008E000CF01FC0181918093F100CF01FC01819146
:1008F0008093F100CF01FC0181918093F100CF0141
:10090000FC0181918093F100CF01FC0181918093E2
:10091000F100CF01FC0181918093F100CF01FC0136
:1009200081918093F100CF01FC0181918093F100CE
:10093000CF01FC0181918093F100CF01E091E800AB
:10094000E5FF7093E800A093B2014FBF85CE8FB74B
:10095000F8949091B201992341F094E09093E900CA
:100960009AE39093E8001092B2018FBF0895CF935D
:10097000DF9300D000D0CDB7DEB780910D0190910C
:100980000E01A0910F01B0911001BC01CD010F909B
:100990000F900F900F90DF91CF91089580911101EA
:1009A0000895809112010895809113010895809116
:1009B000B00108959FB7F8942091B301211103C0AD
:1009C0009FBF8FEF089522E02093E9002091E80077
:1009D00025FFF6CF21EA2093F10020E22093F100D9
:1009E0001092F1001092F1001092F1001092F100BB
:1009F00021E02093F1001092F1008093F1008AE34E
:100A00008093E8009FBF80E008951F921FB61F9259
:100A100011248F939F938091E1001092E10083FF56
:100A200011C01092E90091E09093EB001092EC005D
:100A300092E19093ED0098E09093F0001092B30152
:100A40001092B00182FF13C08091B301882379F026
:100A50008091B201882359F081508093B2018111B5
:100A600006C084E08093E9008AE38093E8009F91C8
:100A70008F911F901FBE1F9018951F920F920FB657
:100A80000F921124EF92FF920F931F932F933F9396
:100A90004F935F936F937F938F939F93AF93BF9386
:100AA000CF93DF93EF93FF931092E9008091E800DA
:100AB00083FF71C0D091F100C091F100E090F1008E
:100AC0008091F100F82E0091F1008091F100182F33
:100AD0002091F1003091F10082EF8093E800C63060
:100AE00009F065C08CEA90E046ED50E0FC016591AC
:100AF0007491E616F70609F049C0FC01329665913B
:100B000074910617170709F041C0FC01349645910E
:100B100054910696FC0184912F3F310519F010F095
:100B20002FEF30E0281708F4822F3EEF9091E80075
:100B3000292F2570D9F392FD12C0982F813108F02A
:100B400090E1FA01292F21112CC0490F511D282FA6
:100B5000291B3093E800891322C0803100F5FF91F2
:100B6000EF91DF91CF91BF91AF919F918F917F9145
:100B70006F915F914F913F912F911F910F91FF9036
:100B8000EF900F900FBE0F901F9018950796481783
:100B9000590709F0ABCF81E28093EB00E0CF822FC1
:100BA000C5CF64916093F10021503196CCCFC53010
:100BB00051F48EEF8093E8000E94A6018E2D80688C
:100BC0008093E300CCCFC93069F5D111E4CFE09236
:100BD000B3011092B0011092B2018EEF8093E80041
:100BE00021E089E691E02093E900AC014F5F5F4F7F
:100BF000FC0134913093EB00332391F0FA014491DE
:100C00004093EC003196E4910396E093ED002F5F62
:100C1000253049F78EE18093EA001092EA009FCFD9
:100C2000CA01F5CFC83069F4D03809F0B4CF0E94BA
:100C3000A6018091B3018093F1008EEF8093E800CC
:100C40008ECFC13289F4D13A09F0A5CF0E94A60116
:100C50008DE091E0FC01019620812093F100F1E00C
:100C600084319F07B9F7E9CFC032B1F4D13209F02E
:100C700092CF8091E80082FFFCCF8DE091E0FC01F3
:100C800001962091F100208321E084319207B9F789
:100C90008BEF8093E800D1CFC23241F4D13209F01A
:100CA0007ACFE092B0010E94A601C7CFC11112C055
:100CB0000E94A601D23849F40093E900C091EB00EC
:100CC000C5FBCC27C0F91092E900C093F100109247
:100CD000F100B3CF8C2F8D7F813009F05CCFD23003
:100CE00009F059CFEF2809F056CF0F778FEF800F1B
:100CF000843008F050CF8EEF8093E8000093E90035
:100D0000C33009F448CF89E18093EB0081E090E0A3
:100D100001C0880F0A95EAF77ECF8091B00180FF6D
:100D2000FFCF0C941902EF92FF920F931F93CF9372
:100D3000DF93D82FF92EE62EC0E0CE1540F08C2F91
:100D4000DF91CF911F910F91FF90EF9008950E9436
:100D5000F6019C012F3F3207B9F02D30310579F3B0
:100D60002A30310561F3C90180978F35910528F745
:100D70000D2F1F2DF80121938F01822F0E942C022D
:100D8000CF5FD02FF12ED9CF8091B301882321F0EE
:100D90008091B00180FDD1CFCFEFD1CF00D0CDB7C2
:100DA000DEB70E94D900E0910301F091040184E1D3
:100DB00091E0099511E4812F0E9457011F5F1B35B7
:100DC00008F011E4E0910301F091040183E291E065
:100DD00009950E94860189831A82E0910301F091AE
:100DE0000401CE0101960995E0910501F0910601FB
:100DF0000995E1CFA1E21A2EAA1BBB1BFD010DC074
:100E0000AA1FBB1FEE1FFF1FA217B307E407F507BA
:100E100020F0A21BB30BE40BF50B661F771F881F96
:100E2000991F1A9469F760957095809590959B012C
:100E3000AC01BD01CF010895EE0FFF1F0590F491A5
:100E4000E02D09940E942D07A59F900DB49F900D51
:100E5000A49F800D911D11240895A29FB001B39FFE
:100E6000C001A39F700D811D1124911DB29F700DB3
:100E7000811D1124911D0895BB274A3031F4992317
:100E800022F4BDE2909581959F4F0C944807BB27B3
:100E9000FB015527AA27880F991FAA1FA41710F036
:100EA000A41B83955051B9F7A05DAA3308F0A95D42
:100EB000A193009779F7B111B1931192CB010C94E2
:100EC0006107DC01FC01672F71917723E1F732970D
:100ED00004C07C916D9370836291AE17BF07C8F315
:100EE0000895F894FFCF9E04990494048F048A0413
:100EF000850480047B04760471046C046704620436
:100F00005D04580453044E04490444043F043A0465
:100F1000350430042B04260421041C041704120495
:100F20000D0408040304FE03F903F403EF03EA03CA
:100F3000E503E003DB03D603D103CC03C703C203FD
:100F4000BD03B803B303AE03A903A4039F039A032D
:100F5000950390038B03860381037C03770372035D
:080F60006D03680363035E03E7
:100F680001C7016C0279027D029A02CA0200E100FF
:100F78000000000848656C6C6F20576F726C642124
:0A0F8800200A004563686F3A20005C
:00000001FF
