:100000000C94CD000C94F5000C94F5000C94F500C4
:100010000C94F5000C94F5000C94F5000C94F5008C
:100020000C94F5000C94F5000C94B70A0C94260B74
:100030000C94F5000C94F5000C94F5000C94F5006C
:100040000C94F5000C94F5000C94F5000C94F5005C
:100050000C94F5000C94F5000C94F5000C946D0ACA
:100060000C94F5000C94F5000C94F5000C94F5003C
:100070000C94F5000C94F5000C94F5000C94F5002C
:100080000C94F5000C94F5000C94F5000C94F5001C
:100090000C94580D0C94F5000C94F5000C94F5009C
:1000A0000C94F5000C94F5000C94F500080B00027C
:1000B0000202000009040000010202000005240001
:1000C0001001052401010104240206052406000193
:1000D0000705810310004009040100020A00000026
:1000E00007050202400000070583024000000403E8
:1000F000090412010002EF02014041233780000190
:100100000102030141726475696E6F204C4C43001B
:1001100041726475696E6F204D6963726F000000F3
:100120000000240027002A002D00300000000000FD
:10013000250028002B002E003100040404040403D1
:100140000405020202020403020202020606060677
:10015000060604040202020404040802011040809E
:10016000401020408040800802040180402010029E
:1001700001108010204040200000000200090F0004
:1001800000030401000C000000000000000000005B
:100190000000000000000000770E11241FBECFEF0A
:1001A000DAE0DEBFCDBF11E0A0E0B1E0EAE8F9E2BD
:1001B00002C005900D92AC3DB107D9F723E0ACED3C
:1001C000B1E001C01D92AF31B207E1F710E0CDEC14
:1001D000D0E004C02197FE010E944611CC3CD1071B
:1001E000C9F70E94C30E0C94C3140C940000089528
:1001F0000895FC0180913E02882311F13FB7F894E5
:1002000082E08093E9002091F200822F90E018169E
:10021000190614F481E090E0882339F0289A44E626
:1002200040933D024091F1004083222339F0209118
:10023000F200211103C02BE62093E8003FBF089590
:100240008FEF9FEF08952FB7F89483E08093E90034
:100250009091E800892F807295FF04C09091F20080
:1002600080E4891B2FBF08958091350281110DC054
:1002700082E08093310284E0809332021092340253
:100280001092330281E08093350281E392E0089579
:10029000282F30E0F901E858FE4F9491F901E75A10
:1002A000FE4F8491265C3E4FF9012491222309F4EC
:1002B00030C09923E9F091509F30D0F4E92FF0E05D
:1002C000EC59FE4F0C9446119201960173018A017C
:1002D0008E0178017801780199019F01A301A7019E
:1002E000AD017801B101909180009F7790938000DB
:1002F000E22FF0E0EE0FFF1FE45DFE4FA591B491F9
:100300009FB7F894EC91611132C080958E238C9345
:100310009FBF0895909180009F7DE8CF90918000CD
:10032000977FE4CF94B59F7794BDE2CF94B59F7D3E
:10033000FBCF909190009F7790939000D9CF9091B0
:1003400090009F7DF9CF90919000977FF5CF90918D
:10035000C0009F779093C000CBCF9091C0009F7D4D
:10036000F9CF9091C200977F9093C200C1CF8E2B9E
:10037000CECF3FB7F89480912D0290912E02A0919C
:100380002F02B091300226B5A89B05C02F3F19F06F
:100390000196A11DB11D3FBFBA2FA92F982F882705
:1003A000BC01CD01620F711D811D911D42E0660FE0
:1003B000771F881F991F4A95D1F708958F929F92B2
:1003C000AF92BF92CF92DF92EF92FF924B015C010E
:1003D0000E94B9016B017C010E94B9016C197D0971
:1003E0008E099F09683E734081059105A8F321E0BD
:1003F000821A9108A108B10888EEC80E83E0D81EC1
:10040000E11CF11C81149104A104B10429F7FF90AF
:10041000EF90DF90CF90BF90AF909F908F90089516
:10042000409122025091230220912002309121021A
:1004300042175307B4F49091E8009570E1F390915E
:10044000E80092FD19C08093F10080912202909102
:10045000230201968F739927892B19F48EEF8093CD
:10046000E80080912202909123020196909323024A
:100470008093220281E0089580E00895EF92FF9238
:100480000F931F93CF93DF93F82E192FE62E042F8F
:1004900081E0860F880F0E94100283E00E94100204
:1004A000CF2DD12FEC0EFD2EF11CCE15DF05B9F0AE
:1004B00007FF13C0FE0184910E941002182F80E0F4
:1004C0000E941002812321968111EFCFDF91CF91FD
:1004D0001F910F91FF90EF9008958881EDCF81E0FB
:1004E000F5CFDF92EF92FF920F931F93CF93DF939D
:1004F000D82E8A01EB017B01E40EF51ECE15DF0537
:1005000059F0D7FE12C0FE0184910E94100221967C
:100510008111F4CF0FEF1FEFC801DF91CF911F9131
:100520000F91FF90EF90DF9008958881EECF0F93A9
:100530001F93CF93DF931F92CDB7DEB782E08983FD
:1005400042E450E06CEA70E080E80E9471020E9490
:100550003401DC0112960D911C910115110589F0F1
:10056000D801ED91FC910280F381E02DBE016F5F17
:100570007F4FC801099597FD04C0F80100851185DA
:10058000ECCF89810F90DF91CF911F910F9108954A
:10059000615030F02091F100FC0120830196F8CFEA
:1005A000289A84E680933D0208958F929F92AF929D
:1005B000BF92CF92DF92EF92FF920F931F93CF9350
:1005C000DF936C017B018A0180910B01882309F480
:1005D0005CC080913E02882309F457C080912602B6
:1005E00080FF05C08091E00082608093E000E80118
:1005F000B12C8AEFA82E93E0892E2AE3922E209721
:1006000011F4BB20D9F10E94230181110AC0AA94E0
:10061000AA20D9F161E070E080E090E00E94DE0164
:10062000EECF8C171D0611F00CF08C2F9FB7F894AD
:100630008092E9002091E80025FD02C09FBFDFCF36
:10064000282F30E0C21BD30BF701815020F04191DD
:100650004093F100FACFE20EF31EBB2021F09092FE
:10066000E800B12CEBCF8091E80085FDE7CF9092B8
:10067000E800BB24B394209709F3F3CF5D9A84E696
:1006800080932502101611063CF081E090E0F601FF
:100690009383828310E000E0C801DF91CF911F9126
:1006A0000F91FF90EF90DF90CF90BF90AF909F9011
:1006B0008F900895CF93DF931F92CDB7DEB76983F4
:1006C000DC01ED91FC910280F381E02D41E050E0EE
:1006D000BE016F5F7F4F09950F90DF91CF91089515
:1006E00083E08093E9008091F200882319F08AE387
:1006F0008093E80008950E94230190E00895CF932D
:10070000DF931F92CDB7DEB7FC018485958597FDF9
:1007100008C02FEF3FEF358724870F90DF91CF91EF
:100720000895CE0101960E94F900019719F489817C
:1007300090E0F3CF8FEF9FEFF0CF0F931F93CF9306
:10074000DF931F92CDB7DEB78C01FC0184859585C0
:1007500097FF0BC0CE0101960E94F900019771F43A
:10076000898190E0F80195878487F80184859585D3
:100770000F90DF91CF911F910F9108958FEF9FEF11
:10078000F1CFFC018485958597FD0BC09FB7F89448
:1007900082E08093E9008091F2009FBF90E0019693
:1007A00008959FB7F89482E08093E9008091F20069
:1007B0009FBF90E00895089508952091FD01260FB0
:1007C0003327331F21323105ECF420918B02FC01D9
:1007D00090E080E0243069F082E00895A091FD016E
:1007E0002191AC0143525E4FA40FB52FB11D2C9344
:1007F0000196861798F38091FD01680F6093FD01C3
:1008000080E0089581E0089510928B0281E080934A
:100810008A021092650261E082E00E94480161E074
:1008200083E00E944801E9EBF0E080818E7F8083C5
:1008300080818D7F808388E48093B80085E48093F5
:10084000BC0008951092440210924302109292024A
:100850001092B4020E94040487EF90E09093420249
:100860008093410288EF90E09093400280933F0292
:100870000895CF93DF9391E09093DC018823B9F042
:10088000C091B800D091BA008091BC008A7B80935F
:10089000BC0060E082E00E94480160E083E00E94CA
:1008A00048010E940404D093BA00C093B800DF91BD
:1008B000CF9108958F929F92AF92BF92CF92DF9285
:1008C000EF92FF920F931F93CF93DF93D091B402D7
:1008D000D13208F0D7C0182FC091B3020E94B901DD
:1008E0006B017C0180918B0281116BC082E080934F
:1008F0008B0210938A028FEF8093890210928802F4
:10090000D0938702A3E9B2E0E7E6F2E080E0D813F3
:1009100091C01092660280916602CC0FC82BC093E2
:10092000660280916502813009F088C010926502EC
:100930000E94B9016B017C01809166028093BB002B
:1009400080918D0290918E02A0918F02B0919002C1
:10095000892B8A2B8B2BA1F00E94B90100918D026B
:1009600010918E0220918F02309190026C197D09B6
:100970008E099F09061717072807390708F442C090
:100980008091BC0083FDD8CF85EC8093BC000E9491
:10099000B9016B017C0180918B02823009F450C057
:1009A000809189028F3F09F46FC080918902803263
:1009B00009F46CC080918902803309F469C084E035
:1009C00026C080918D0290918E02A0918F02B091ED
:1009D0009002892B8A2B8B2B09F484CF0E94B901BA
:1009E00080908D0290908E02A0908F02B090900225
:1009F0006C197D098E099F0986169706A806B90607
:100A000008F070CF80918C020E94390485E010922A
:100A100092021092B40210929102DF91CF911F9135
:100A20000F91FF90EF90DF90CF90BF90AF909F908D
:100A30008F9008959D9191938F5F69CF85EEA5CF9B
:100A400080918D0290918E02A0918F02B0919002C0
:100A5000892B8A2B8B2B09F49ECF0E94B901009120
:100A60008D0210918E0220918F02309190026C19AC
:100A70007D098E099F09061717072807390708F00F
:100A80008ACFC0CF81E0C3CF80E0C1CF82E0BFCFAB
:100A900083E0BDCF1F93CF93DF93EA01122FDC01D8
:100AA00011968D919C91DC01ED91FC910280F38176
:100AB000E02D0995C817D90729F4812F0E945A04FF
:100AC00091E0811190E0892FDF91CF911F910895DE
:100AD000CF93DF93EC018B818823A1F0888191E093
:100AE000909391028093B302109292021092B402FA
:100AF00081E00E945A0491E0811190E0892FDF91FA
:100B0000CF9108950E94220481E08B83CE010E9440
:100B10006805982F8111E2CFF1CF0895E09144024A
:100B200080914302E81730F4F0E0EB5BFD4F8081E9
:100B300090E008958FEF9FEF089590914402809187
:100B400043022FEF3FEF981748F4E92FF0E0EB5BFB
:100B5000FD4F208130E09F5F90934402C9010895CA
:100B60008091430290914402891B990B0895CF9282
:100B7000DF92EF92FF920F931F93CF93DF937C014D
:100B8000CB018A0120919102222389F0EB016B01B4
:100B9000C40ED51ECC15DD0569F06991D701ED9124
:100BA000FC910190F081E02DC7010995F3CF642FEE
:100BB0000E94DD03C801DF91CF911F910F91FF903B
:100BC000EF90DF90CF900895CF93DF931F92CDB732
:100BD000DEB76983209191022223F9F02091B402BB
:100BE000203258F021E030E0FC013383228390E092
:100BF00080E00F90DF91CF91089580919202E82FCD
:100C0000F0E0ED56FD4F998190838F5F80939202C3
:100C10008093B40281E090E0ECCF61E0CE010196D8
:100C20000E94DD03F7CF90E080E00895FC01019081
:100C30000020E9F73197AF01481B590BBC0185EB48
:100C400092E00C94D5028F929F92AF92BF920F9335
:100C50001F93CF93DF93CDB7DEB7A1970FB6F8946C
:100C6000DEBF0FBECDBF19A2423008F44AE08E01AC
:100C70000F5D1F4F842E912CB12CA12CA501940146
:100C80000E942411E62FB901CA01EA30F4F4E05DB4
:100C9000D801EE938D01232B242B252B79F790E09F
:100CA00080E0109719F0CD010E941606A1960FB6AC
:100CB000F894DEBF0FBECDBFDF91CF911F910F9192
:100CC000BF90AF909F908F900895E95CE1CFCF9354
:100CD000DF930E941606EC018BE491E00E94160659
:100CE0008C0F9D1FDF91CF910895CF93DF9300D09C
:100CF000CDB7DEB789836A83809113039091140383
:100D0000FC012481358122303105B8F0208131E0A9
:100D1000309391022093B302109292021092B40287
:100D200021E042E050E0BE016F5F7F4F0E944A0524
:100D30000F900F90DF91CF91089580E0F9CFE1E11E
:100D4000F3E080879187682F8DE390E00E9475061D
:100D50006EE170E080E090E00C94DE012F923F9213
:100D60004F925F926F927F928F929F92AF92BF92BB
:100D7000CF92DF92EF92FF920F931F93CF93DF9367
:100D8000DC011496ED91FC911597EF2B09F412C13B
:100D900069012A01EC01888191E09093910280938E
:100DA000B302109292021092B40220E041E050E0AF
:100DB000CD010E944A05782E882309F4FBC0F12C4E
:100DC000E12C33243394EC14FD0408F0F4C08C813E
:100DD0009D8186010E191F098017910708F48C0167
:100DE00028800E94B9014B015C0180918B02811126
:100DF00073C0602EB0E2B01710F480E2682E30921B
:100E00008B0221E0C601801B910BE816F90608F45D
:100E100020E020938A02EFEFE0938902109288028B
:100E20008FEF860D80938702309266028091660272
:100E3000220C282A2092660280916502813009F0F6
:100E400090C0109265020E94B9014B015C01809133
:100E500066028093BB0080918D0290918E02A091DA
:100E60008F02B0919002892B8A2B8B2BA1F00E94CC
:100E7000B90120918D0230918E0240918F025091E4
:100E80009002681979098A099B09261737074807CC
:100E9000590708F442C08091BC0083FDD8CFF5EC1F
:100EA000F093BC000E94B9014B015C0180918B0260
:100EB000813009F45AC080918802861510F4609040
:100EC0008802A7E6B2E0E5E4F2E080E0861551F1A1
:100ED0009D9191938F5FFACF80918D0290918E02B8
:100EE000A0918F02B0919002892B8A2B8B2B09F451
:100EF0007CCF0E94B90120918D0230918E024091E9
:100F00008F0250919002681979098A099B09261766
:100F100037074807590708F068CF80918C020E9474
:100F20003904612C1092440260924302601611064B
:100F300009F040C042018E0C9F1C5401C501881964
:100F400099098017910798F589819A81DC01ED91C3
:100F5000FC910284F385E02D0995F50181935F01F1
:100F6000EDCF85EE8093BC009DCF80918D02909156
:100F70008E02A0918F02B0919002892B8A2B8B2B2D
:100F800009F494CF0E94B90120918D0230918E0214
:100F900040918F0250919002681979098A099B0942
:100FA000261737074807590708F080CFB6CFE00E5D
:100FB000F11E09CF712C872DDF91CF911F910F91D9
:100FC000FF90EF90DF90CF90BF90AF909F908F9069
:100FD0007F906F905F904F903F902F900895CF93A8
:100FE000DF931F92CDB7DEB7198221E030E0AE016A
:100FF0004F5F5F4FBA0180911303909114030E94D9
:10100000AE0689810F90DF91CF9108954F925F9244
:101010006F927F928F929F92AF92BF92CF92DF9208
:10102000EF92FF920F931F93CF936B017C01742E6D
:10103000AC019B010E948A13882399F08EE491E011
:10104000CF911F910F91FF90EF90DF90CF90BF90C5
:10105000AF909F908F907F906F905F904F900C9487
:10106000160646015701E894B7F82FEF3FEF4FE718
:101070005FE7C501B4010E948A1381110DC02FEFF3
:101080003FEF4FE75FE7C501B4010E94B9111816A1
:101090001CF482E591E0D4CF2FEF3FEF4FE75FE400
:1010A000C701B6010E94181318161CF486E591E0DA
:1010B000C7CF2FEF3FEF4FE75FECC701B6010E94AC
:1010C000B91187FDF3CF20E030E0A901C701B601D7
:1010D0000E94B91110E000E087FF0AC06DE285EBC5
:1010E00092E00E945A038C01F7FAF094F7F8F0941A
:1010F000C0E060E070E080E09FE37C1641F020E01B
:1011000030E040E251E40E94BE11CF5FF6CFA7016C
:1011100096010E944D112B013C010E9437124B0198
:101120005C014AE00E9423067C01E00EF11ECC2304
:10113000C1F1C501B4010E9466129B01AC01C3015B
:10114000B2010E944C114B015C016EE285EB92E012
:101150000E945A03E80EF91EC15018F120E030E059
:1011600040E251E4C501B4010E941D132B013C0172
:101170000E9437124B01B12CA12C4AE0C501B401E9
:101180000E942306E80EF91EC501B4010E946612F2
:101190009B01AC01C301B2010E944C114B015C01E7
:1011A000DBCFC701CF911F910F91FF90EF90DF90A0
:1011B000CF90BF90AF909F908F907F906F905F90F7
:1011C0004F900895CF92DF92EF92FF92CF93DF93EB
:1011D0006C01990FEE08FF08F7FE19C06DE285EB70
:1011E00092E00E945A03EC0166277727CB016C1925
:1011F0007D098E099F094AE00E9423068C0F9D1FDE
:10120000DF91CF91FF90EF90DF90CF9008954AE06B
:10121000C701B601DF91CF91FF90EF90DF90CF90A3
:101220000C942306CF92DF92EF92FF920F931F93BD
:10123000CF93DF9300D000D000D01F92CDB7DEB7A0
:101240008C01FB018CE0D8011D928A95E9F7AE0173
:101250004F5F5F4F86E0DA011D928A95E9F78AE1D8
:101260008F8326E030E0BE01695F7F4F82819381EA
:101270000E94AE06CB80DC80ED80FE8069817A81A1
:10128000072E000C880B990B0E94681220E030E0BA
:1012900040E85DE30E941D13F8016083718382833F
:1012A0009383B601DD0C880B990B0E94681220E035
:1012B00030E040E85DE30E941D13D80114966D9361
:1012C0007D938D939C931797B701FF0C880B990B17
:1012D0000E94681220E030E040E85DE30E941D13A8
:1012E000F8016087718782879387C80127960FB6B8
:1012F000F894DEBF0FBECDBFDF91CF911F910F914C
:10130000FF90EF90DF90CF9008950F931F93CF93AE
:10131000DF93CDB7DEB72C970FB6F894DEBF0FBEC4
:10132000CDBF8B01FB01349620E2DF011D922A958F
:10133000E9F744E250E060E070E0F8014083518357
:1013400062837383DC0114964D915D916D917C9164
:101350001797448355836683778343E050E060E0CA
:1013600070E040875187628773872FB7F894409168
:10137000290250912A0260912B0270912C022FBFFA
:10138000408B518B628B738BBC01CE0101960E9406
:10139000120989819A81AB81BC81F801848B958B7C
:1013A000A68BB78B8D819E81AF81B885808F918F01
:1013B000A28FB38F89859A85AB85BC85848F958FE5
:1013C000A68FB78F81E02C960FB6F894DEBF0FBEC4
:1013D000CDBFDF91CF911F910F9108950C942B14E5
:1013E0000F931F93CF93DF938C01EB0188E2FB01F6
:1013F00011928A95E9F74BE050E06AE571E0CE0181
:101400000E94B4141B8681E090E0A0E0B0E08C87DD
:101410009D87AE87BF87F80184819581A681B781BA
:10142000888B998BAA8BBB8B83E090E0A0E0B0E027
:101430008C8B9D8BAE8BBF8B1CA21DA21EA21FA2EC
:10144000188E198E1A8E1B8E1C8E1D8E1E8E1F8E50
:101450008AE097EDA3E2BCE388A399A3AAA3BBA368
:10146000DF91CF911F910F91089585ED8093BC007E
:1014700080918D0290918E02A0918F02B091900286
:101480000796A11DB11D23E0B695A7959795879561
:101490002A95D1F72091BC0024FD03C010928B0245
:1014A000089540918D0250918E0260918F0270914B
:1014B0009002452B462B472B69F30097A105B105F8
:1014C00041F02AE22A95F1F700C00197A109B1097C
:1014D000E1CF80918C020C9439041F920F920FB6C9
:1014E0000F9211242F933F938F939F93AF93BF93AA
:1014F0008091290290912A02A0912B02B0912C0296
:101500003091280223E0230F2D3758F50196A11DB5
:10151000B11D209328028093290290932A02A09360
:101520002B02B0932C0280912D0290912E02A0915B
:101530002F02B09130020196A11DB11D80932D02A2
:1015400090932E02A0932F02B0933002BF91AF91DF
:101550009F918F913F912F910F900FBE0F901F90F1
:10156000189526E8230F0296A11DB11DD2CF1F9218
:101570000F920FB60F9211248F939F938091E100E9
:101580009091E100937F9093E10083FF0FC0109250
:10159000E90091E09093EB001092EC0092E39093BD
:1015A000ED0010923E0298E09093F00082FF22C07E
:1015B00093E09093E9009091F200992319F09AE357
:1015C0009093E80090912502992341F09091250293
:1015D000915090932502911101C05D9890913D0228
:1015E000992341F090913D02915090933D029111C9
:1015F00001C0289884FF18C08091E2008E7E81602F
:101600008093E2008091E1008F7E8093E1008091E1
:1016100026028E7E8061809326029F918F910F908B
:101620000FBE0F901F90189580FFF7CF8091E200BA
:101630008E7E80618093E2008091E1008E7E8093B7
:10164000E100809126028E7E8160E5CF1F920F928D
:101650000FB60F921124CF92DF92EF92FF920F9369
:101660001F932F933F934F935F936F937F938F932A
:101670009F93AF93BF93EF93FF93CF93DF93CDB738
:10168000DEB76C97DEBFCDBF1092E9008091E80015
:1016900083FF25C068E0CE0145960E94C80282EF14
:1016A0008093E8008D8987FF39C09091E80090FF12
:1016B000FCCF982F907609F034C19E894F89588DC0
:1016C0002F89F88C911131C0803861F58091270203
:1016D0008093F1001092F1008EEF8093E8006C96F9
:1016E0000FB6F894DEBF0FBECDBFDF91CF91FF9153
:1016F000EF91BF91AF919F918F917F916F915F918A
:101700004F913F912F911F910F91FF90EF90DF909C
:10171000CF900F900FBE0F901F9018959EEF909353
:10172000E800C7CF1092F100D5CF913059F4811164
:10173000D3CF4130510581F6809127028D7F809370
:101740002702CACF933049F48111C6CF41305105E9
:1017500019F6809127028260F2CF953041F4809192
:10176000E80080FFFCCF20682093E300B5CF9630DF
:1017700009F0A9C00B8D1C8D22E01092E900109297
:10178000230210922202F2122EC010922102109215
:1017900020020E9497021F8299E09983FA8291E0C9
:1017A0009E8390EA98879AEF998720912202309140
:1017B0002302275F3F4F3C832B838D831092E900E8
:1017C0001092230210922202109321020093200211
:1017D00049E050E0BE016F5F7F4F80E00E947102E0
:1017E0000E94970279CF10932102009320020E9459
:1017F0003401DC0112960D911C910115110509F4BB
:1018000051C1D801ED91FC910480F581E02DBE011C
:101810006B5E7F4FC8010995009709F03EC1F80142
:1018200000851185EACFF3E0FF120EC08F8988236F
:1018300009F440C0823061F440E86DE080E191E05D
:101840000E943E02811148CF81E28093EB0047CF96
:10185000813029F440E86BE084E091E0F1CF8330FF
:1018600099F70E943401DC011296ED90FC908E01F4
:101870000F5F1F4F6801E114F10479F0D701ED917A
:10188000FC910680F781E02DB801C7010995080F8A
:10189000111DF701E084F184EECFD8011C92F6010E
:1018A00001900020E9F73197BF016C197D0940E0F4
:1018B000C601C6CF6EEE70E0FB01449150E080E8B7
:1018C0000E94710209CF973009F4BECF983021F4FD
:1018D00081E08093F10000CF993009F0FDCE837054
:1018E00009F0B2CFE3E1F1E081E031E096E321914C
:1018F000222371F08093E9003093EB00DF01119710
:101900002C912093EC009093ED008F5F873079F756
:101910008EE78093EA001092EA008F8980933E025E
:10192000DBCE8B8D9C8D1092E900109223021092D9
:1019300022029093210280932002898D811192C00E
:101940008E899D89913A49F4813209F07DCF47E033
:1019500050E064E071E080E0B3CF913209F074CFE1
:10196000833269F48F89988DB0E0A0E08093000104
:1019700090930101A0930201B0930301ADCE803298
:1019800069F48091E80082FFFCCF67E084E091E099
:101990000E94C8028BEF8093E8009ECE823209F04D
:1019A0009BCE8F8980930B01EEEFFFE78591949199
:1019B0008B3F9C4D51F1E0E0F8E080910401909163
:1019C0000501A0910601B0910701803B9440A1055B
:1019D000B105F1F480910B0180FD1AC0EE3F8AE061
:1019E000F80789F587E797E7918380838091600006
:1019F0008093240288E19BE00FB6F894A895809329
:101A000060000FBE9093600067CEEEEFFAE0D5CF96
:101A1000808191818737974709F05ECEA8958091A4
:101A20006000886180936000809124028093600050
:101A3000EE3F2AE0F20789F08091FE0A9091FF0ABA
:101A40009183808349CE808191818737980751F2B5
:101A50009093FF0A8093FE0AC5CF1092FF0A10925E
:101A6000FE0A3ACE0E943401DC0112960D911C91BF
:101A70000115110509F4E8CED801ED91FC91019012
:101A8000F081E02DBE016B5E7F4FC8010995811189
:101A900023CEF80100851185EBCF181619060CF43A
:101AA0001BCED2CEF1E0FF12BECE62EF70E004CFCB
:101AB0001F920F920FB60F9211242F933F934F93C3
:101AC0005F936F937F938F939F93AF93BF93EF93A6
:101AD000FF938091B900887F803609F44AC0F0F501
:101AE000883209F4A7C018F5803109F49BC0B8F416
:101AF000882309F4F9C0883009F494C0FF91EF916C
:101B0000BF91AF919F918F917F916F915F914F9115
:101B10003F912F910F900FBE0F901F901895883115
:101B200009F488C0803251F78093890214C0803450
:101B300009F49DC040F48033B9F38833F9F68093FB
:101B4000890285ECB0C0803509F485C0883509F478
:101B500096C0883499F60E94350AD0CF883909F4A6
:101B60008CC038F5883729F050F4883611F080376A
:101B700029F683E080938B0210921F0257C08838A9
:101B800009F47BC0803919F0803809F0B7CF809113
:101B90001F02803208F071C0E0911F0281E08E0FB9
:101BA00080931F028091BB00F0E0E150FE4F8083E4
:101BB0003DC0803B39F0E0F4803A09F479C0883ABE
:101BC00009F09CCF84E080938B021092FE0110926A
:101BD000FD01E0914102F091420209958091FD01E1
:101BE00081110FC081E08093FD011092DD0109C0D9
:101BF000803C09F4A6CF883C09F4A3CF883B09F0C8
:101C00007DCFE091FE0181E08E0F8093FE01F0E038
:101C1000E352FE4F80818093BB009091FE01809142
:101C2000FD0129C0809166028093BB0085EC809302
:101C3000BC0064CF9091880280918702981758F574
:101C4000E091880281E08E0F80938802F0E0E959EC
:101C5000FD4F8081E9CFE091880281E08E0F809373
:101C600088028091BB00F0E0E959FD4F808390919C
:101C70008802809187029817C8F285E8D8CFE09152
:101C8000880281E08E0F809388028091BB00F0E093
:101C9000E959FD4F808380918A0281115CCF81E0F8
:101CA0008093650284EA8093BC0010928B0226CF59
:101CB00085EC8093BC0010928B0280911F028032D1
:101CC00030F4E0911F02F0E0E150FE4F108260918D
:101CD0001F0270E0E0913F02F09140028FEF91E02F
:101CE000099510921F020ACF1092890234CF0F93E8
:101CF0001F93CF93DF93E5EBF2E01382128288EE1D
:101D000093E0A0E0B0E084839583A683B7832DE1C0
:101D100031E0318320832FEF3FEF35872487C5E003
:101D2000D3E01B821A828C839D83AE83BF838FE2B4
:101D300091E09983888301E113E081E491E0D80187
:101D40008D939C9387E390E0A0E0B0E0F80184835A
:101D50009583A683B78386E090E00E948F13FC01F1
:101D600088E28083D283C183138280E290E09583EE
:101D70008483D8011396FC93EE931297DF91CF9151
:101D80001F910F910895CF93DF93CDB7DEB7E597FD
:101D90000FB6F894DEBF0FBECDBF789484B58260D5
:101DA00084BD84B5816084BD85B5826085BD85B5FF
:101DB000816085BD80916E00816080936E0010927D
:101DC00081008091810082608093810080918100F8
:101DD0008160809381008091800081608093800089
:101DE0008091910082608093910080919100816048
:101DF0008093910080919000816080939000809109
:101E0000C10084608093C1008091C1008260809392
:101E1000C1008091C10081608093C1008091C300A6
:101E200081608093C3008091C00082608093C00075
:101E30008091C20081608093C20080917A008460AA
:101E400080937A0080917A00826080937A008091FA
:101E50007A00816080937A0080917A008068809314
:101E60007A0010923E021092270210922602809170
:101E7000D70081608093D70080EA8093D80089B52D
:101E8000806189BD89B5826089BD09B400FEFDCF3E
:101E900061E070E080E090E00E94DE018091D80077
:101EA0008F7C80618093D8008091E000807F809358
:101EB000E0008091E1008E7E8093E1008DE08093D0
:101EC000E200559A209A5D9828988FEF9FEF9093A3
:101ED000C2028093C10210910B016AE070E080E0C1
:101EE00090E00E94DE011123B1F3EAE6F1E02491D3
:101EF000EBE4F1E08491882399F090E0880F991F3A
:101F0000FC01E25EFE4FA591B491FC01E45DFE4F41
:101F1000859194918FB7F894EC91E22BEC938FBF5D
:101F200060E081E10E9448010091130310911403C5
:101F30000E94220481E0F801838305E510E0DD249E
:101F4000D394E0901303F09014030E942204F7014D
:101F5000D382C7010E94680581114EC16AE070E01A
:101F600080E090E00E94DE010150110951F782E803
:101F700091E00E94670661E081E10E944801FBCF89
:101F800062E370E080E090E00E94DE0160E08EE3BA
:101F900090E00E9475066AE070E080E090E00E94A8
:101FA000DE0160E087E090E00E94750660E08FE36C
:101FB00090E00E9475066AE070E080E090E00E9488
:101FC000DE018CE090E00E949F0664E170E080E01A
:101FD00090E00E94DE010091190310911A0390E035
:101FE00080E00E949F0669E170E080E090E00E943E
:101FF000DE0160E087E090E00E94750660E88FE314
:1020000090E00E9475066AE070E080E090E00E9437
:10201000DE01C8010E949F0664E170E080E090E06C
:102020000E94DE0181E691E00E94670661E081E1A5
:102030000E94480168EE73E080E090E00E94DE01BB
:1020400060E081E10E9448018E010B5D1F4F80E03E
:10205000282E80E0382EBE016F5F7F4F81E193E034
:102060000E948509F80188E011928A95E9F7E0E27B
:10207000E9AB28E030E0A801BE016F5C7F4F8091A2
:102080001303909114030E94AE066BA57CA5072E46
:10209000000C880B990B0E94681220E030E040E8A9
:1020A00058E30E941D136B017C0169A57AA5072ED8
:1020B000000C880B990B0E94681220E030E040E889
:1020C00058E30E941D134B015C016FA178A5072EF8
:1020D000000C880B990B0E94681220E030E040E869
:1020E00058E30E941D132B013C016DA17EA1072E18
:1020F000000C880B990B0E94681220E030E040E849
:1021000058E30E941D136AAB7BAB8CAB9DAB61E1C6
:1021100073E0C8010E94120988EB91E00E94160644
:102120006DA17EA18FA198A50E943012CB010E94C3
:10213000E20886EC91E00E94160669A57AA58BA5B7
:102140009CA50E943012CB010E94E20886EC91E02F
:102150000E9416066DA57EA58FA598A90E94301233
:10216000CB010E94E2088BEC91E00E9467068EECA6
:1021700091E00E94160644E0C301B2010E940608E5
:1021800088EC91E00E94160644E0C501B4010E946B
:10219000060888EC91E00E94160644E0C701B601EB
:1021A0000E94060888EC91E00E94160644E06AA9A5
:1021B0007BA98CA99DA90E9406088BE491E00E944E
:1021C000160661E081E10E94480164E670E080E06B
:1021D00090E00E94DE0160E081E10E94480164E637
:1021E00070E080E090E00E94DE012114310409F4E7
:1021F00032CF0E9400002FCF0E94EF07803A59F0A3
:1022000068EE73E080E090E00E94DE010E94EF073C
:10221000803A09F0ACCE90E080E00E949F0660E238
:102220008FE390E00E9475066EE170E080E090E040
:102230000E94DE010E94EF07803A09F4A1CE6AE015
:1022400070E080E090E0F4CFA1E21A2EAA1BBB1B45
:10225000FD010DC0AA1FBB1FEE1FFF1FA217B30772
:10226000E407F50720F0A21BB30BE40BF50B661F88
:10227000771F881F991F1A9469F76095709580954C
:1022800090959B01AC01BD01CF010895EE0FFF1F9A
:102290000590F491E02D09945058BB27AA270E947D
:1022A00064110C94DE120E94D01238F00E94D712F2
:1022B00020F039F49F3F19F426F40C94CD120EF45B
:1022C000E095E7FB0C94C712E92F0E94EF1258F338
:1022D000BA17620773078407950720F079F4A6F50B
:1022E0000C9411130EF4E0950B2EBA2FA02D0B01B8
:1022F000B90190010C01CA01A0011124FF27591B4B
:1023000099F0593F50F4503E68F11A16F040A22F50
:10231000232F342F4427585FF3CF469537952795C1
:10232000A795F0405395C9F77EF41F16BA0B620BC0
:10233000730B840BBAF09150A1F0FF0FBB1F661F07
:10234000771F881FC2F70EC0BA0F621F731F841F4A
:1023500048F4879577956795B795F7959E3F08F070
:10236000B0CF9395880F08F09927EE0F9795879532
:1023700008950E94A31208F481E008950E94D211EA
:102380000C94DE120E94D71258F00E94D01240F036
:1023900029F45F3F29F00C94C71251110C941213C9
:1023A0000C94CD120E94EF1268F39923B1F35523D8
:1023B00091F3951B550BBB27AA2762177307840758
:1023C00038F09F5F5F4F220F331F441FAA1FA9F3EE
:1023D00035D00E2E3AF0E0E832D091505040E695DC
:1023E000001CCAF72BD0FE2F29D0660F771F881F3D
:1023F000BB1F261737074807AB07B0E809F0BB0B30
:10240000802DBF01FF2793585F4F3AF09E3F510543
:1024100078F00C94C7120C9412135F3FE4F3983ECB
:10242000D4F3869577956795B795F7959F5FC9F72C
:10243000880F911D9695879597F90895E1E0660FAD
:10244000771F881FBB1F621773078407BA0720F026
:10245000621B730B840BBA0BEE1F88F7E09508958F
:102460000E9437126894B1110C94121308950E94BF
:10247000F71288F09F5798F0B92F9927B751B0F00D
:10248000E1F0660F771F881F991F1AF0BA95C9F7F8
:1024900014C0B13091F00E941113B1E008950C9472
:1024A0001113672F782F8827B85F39F0B93FCCF325
:1024B000869577956795B395D9F73EF49095809575
:1024C000709561957F4F8F4F9F4F0895E89409C095
:1024D00097FB3EF490958095709561957F4F8F4F57
:1024E0009F4F9923A9F0F92F96E9BB279395F6956D
:1024F000879577956795B795F111F8CFFAF4BB0FEB
:1025000011F460FF1BC06F5F7F4F8F4F9F4F16C04E
:10251000882311F096E911C0772321F09EE8872FD8
:10252000762F05C0662371F096E8862F70E060E094
:102530002AF09A95660F771F881FDAF7880F96950D
:10254000879597F90895990F0008550FAA0BE0E8B1
:10255000FEEF16161706E807F907C0F01216130665
:10256000E407F50798F0621B730B840B950B39F4A5
:102570000A2661F0232B242B252B21F408950A260B
:1025800009F4A140A6958FEF811D811D089597F94B
:102590009F6780E870E060E008959FEF80EC089509
:1025A00000240A9416161706180609060895002432
:1025B0000A9412161306140605060895092E0394AC
:1025C000000C11F4882352F0BB0F40F4BF2B11F420
:1025D00060FF04C06F5F7F4F8F4F9F4F089557FD7F
:1025E0009058440F551F59F05F3F71F04795880F81
:1025F00097FB991F61F09F3F79F087950895121618
:1026000013061406551FF2CF4695F1DF08C01616C3
:1026100017061806991FF1CF869571056105089474
:102620000895E894BB2766277727CB0197F908958B
:102630000E94A31208F48FEF08950E9430130C94A7
:10264000DE120E94D01238F00E94D71220F095239B
:1026500011F00C94C7120C94CD1211240C94121387
:102660000E94EF1270F3959FC1F3950F50E0551F34
:10267000629FF001729FBB27F00DB11D639FAA27D7
:10268000F00DB11DAA1F649F6627B00DA11D661F26
:10269000829F2227B00DA11D621F739FB00DA11D47
:1026A000621F839FA00D611D221F749F3327A00D01
:1026B000611D231F849F600D211D822F762F6A2F9D
:1026C00011249F5750409AF0F1F088234AF0EE0F02
:1026D000FF1FBB1F661F771F881F91505040A9F72F
:1026E0009E3F510580F00C94C7120C9412135F3F6B
:1026F000E4F3983ED4F3869577956795B795F7956B
:10270000E7959F5FC1F7FE2B880F911D96958795E2
:1027100097F908950E94A312880B990B08950F93BF
:102720001F93CF93DF938230910510F482E090E005
:10273000E0911D03F0911E0330E020E0B0E0A0E046
:10274000309799F42115310509F44AC0281B390B3B
:1027500024303105D8F58A819B816115710589F195
:10276000FB0193838283FE0111C04081518102816C
:10277000138148175907E0F04817590799F4109743
:1027800061F012960C93129713961C933296CF0118
:10279000DF91CF911F910F91089500931D03109326
:1027A0001E03F4CF2115310551F04217530738F0BD
:1027B000A901DB019A01BD01DF01F801C1CFEF01E1
:1027C000F9CF90931E0380931D03CDCFFE01E20F3E
:1027D000F31F819391932250310939832883D7CFF6
:1027E00020911B0330911C03232B41F420910E01F7
:1027F00030910F0130931C0320931B0320910C0197
:1028000030910D012115310541F42DB73EB74091AE
:10281000100150911101241B350BE0911B03F09125
:102820001C03E217F307A0F42E1B3F0B28173907F0
:1028300078F0AC014E5F5F4F2417350748F04E0F1C
:102840005F1F50931C0340931B03819391939FCF71
:10285000F0E0E0E09CCFCF93DF930097E9F0FC013C
:10286000329713821282A0911D03B0911E03ED01D5
:1028700030E020E01097A1F420813181820F931F76
:1028800020911B0330911C032817390709F061C000
:10289000F0931C03E0931B03DF91CF910895EA01AD
:1028A000CE17DF07E8F54A815B819E01411551058E
:1028B000B1F7E901FB83EA8349915991C40FD51F10
:1028C000EC17FD0761F4808191810296840F951FBA
:1028D000E90199838883828193819B838A83F0E0D5
:1028E000E0E012968D919C9113970097B9F52D9188
:1028F0003C911197CD010296820F931F20911B03EB
:1029000030911C032817390739F6309751F510928A
:102910001E0310921D03B0931C03A0931B03BCCF96
:10292000D383C28340815181840F951FC817D90773
:1029300061F44E5F5F4F88819981480F591F518321
:1029400040838A819B81938382832115310509F01D
:10295000B0CFF0931E03E0931D039ECFFD01DC0179
:10296000C0CF13821282D7CFFB01DC01415050400F
:1029700048F001900D920020C9F701C01D9241500E
:0A2980005040E0F70895F894FFCFEF
:10298A00FFFFFFFF00E100000000000000001F033E
:10299A00800000C18081000000000000005A03D5B9
:1029AA00027B037003C1037F039D0300000000E460
:1029BA0005B70513068D05B0059D058E05000000B7
:1029CA0000DB03EE09DC038509F0090D0A006E61DC
:1029DA006E00696E66006F766600424E4F3035357E
:1029EA0000424E4F303535207375636365737366E5
:1029FA00756C6C7920696E697469616C697A656451
:102A0A0021004E6F20424E4F303535206465746583
:102A1A0063746564202E2E2E20436865636B2079CB
:102A2A006F757220776972696E67206F72204932FA
:102A3A0043204144445221004F7269656E746174A7
:102A4A00696F6E3A2000C2B02C2000C2B0005175E6
:0C2A5A00617465726E696F6E3A200000B6
:00000001FF
