:100000000C94BA000C94D7000C94D7000C94D70031
:100010000C94D7000C94D7000C94D7000C94D70004
:100020000C94D7000C94D7000C943D040C947504E8
:100030000C94D7000C94D7000C94D7000C94D700E4
:100040000C94D7000C94D7000C94D7000C94D700D4
:100050000C94D7000C94D7000C94D7000C94D700C4
:100060000C94D7000C94D7000C94D7000C94D700B4
:100070000C94D7000C94D7000C94D7000C94D700A4
:100080000C94D7000C94D7000C94D7000C94D70094
:100090000C94D7000C94D7000C94D7000C94D70084
:1000A0000C94D7000C94D7000C94D70000010000EA
:1000B0005701120002000014014300030000100168
:1000C0000401030904F8001602030904E000160302
:1000D000030904D600080803300030003000000097
:1000E00016035500530042002000530065007200C3
:1000F000690061006C0000001603610074006D006F
:1001000065006700610033003200750034000000B4
:100110000403090409024300020100C0320904007B
:100120000001020201000524001001052401010163
:10013000042402060524060001070582031000407E
:1001400009040100020A0000000705030240000044
:10015000070584024000001201000202000010C0E6
:10016000167A040001010203010001C11201803668
:100170000181360011241FBECFEFDAE0DEBFCDBF14
:1001800011E0A0E0B1E0E8EAFDE002C005900D92C8
:10019000AC34B107D9F721E0ACE4B1E001C01D9265
:1001A000A035B207E1F70E9406060C9491060C9464
:1001B0000000E0910001F091010109948091E800B4
:1001C00080FFFCCF089581E08093D70080EA809380
:1001D000D80082E189BD09B400FEFDCF80E980939B
:1001E000D8008091E0008E7F8093E00010924F0154
:1001F00010924C018CE08093E200789408950E9464
:10020000E30080914F018823E1F32FEF83ED90E32A
:10021000215080409040E1F700C0000008952FB7C2
:10022000F89480914F01811103C080E02FBF0895A1
:1002300083E08093E9008091F2008111F7CF9091E3
:10024000E80092FFF2CF892F807295FDEECF9BE6FA
:100250009093E800EBCF80914F0108959FB7F894F9
:1002600080914F01811104C09FBF8FEF9FEF0895D0
:1002700083E08093E9002BE68091E80085FD05C0CE
:1002800082FFF2CF2093E800F7CF8091F100209118
:10029000E80025FD03C02BE62093E8009FBF90E017
:1002A000089580914F01882359F08FB7F89493E017
:1002B0009093E9002BE69091E80095FD02C08FBF76
:1002C00008952093E800F7CF90914F01911102C05B
:1002D0008FEF08959FB7F89424E02093E9002091D0
:1002E0004D01222341F02091E80025FD02C09FBF6F
:1002F000EFCF10924D012091E400275E34E0409151
:10030000E80045FD12C09FBF9091E400921304C025
:1003100081E080934D01DCCF90914F019923C1F290
:100320009FB7F8943093E900EACF8093F100809171
:10033000E80085FD03C08AE38093E80085E08093B0
:100340004E019FBF80E00895CF93DF93EC01899128
:10035000882321F00E946401CE01F8CFDF91CF9174
:1003600008958AE491E00C94A401CF93DF93CDB774
:10037000DEB72A970FB6F894DEBF0FBECDBF4AE0B6
:10038000BE016F5F7F4F0E945C06CE0101960E9406
:10039000A4012A960FB6F894DEBF0FBECDBFDF9141
:1003A000CF910895CF93DF93CDB7DEB763970FB6A4
:1003B000F894DEBF0FBECDBF90E3998392E69A8397
:1003C000FE0133964FE050E090E09C01042E02C005
:1003D000359527950A94E2F721703327205D3F4F2A
:1003E00021934150510988F71B8ACE0101960E9442
:1003F000A40163960FB6F894DEBF0FBECDBFDF91A8
:10040000CF9108950F931F93CF93DF9300D000D027
:100410000F92CDB7DEB7182F00E3098388E78A83F0
:1004200040E1BE016D5F7F4F812F90E00E945C062E
:10043000103108F40B83CE0101960E94A4010F90A5
:100440000F900F900F900F90DF91CF911F910F9110
:10045000089590914F01992351F09FB7F89424E0AB
:100460002093E9002091E80025FD03C09FBF8FEF96
:1004700008958093F1008091E80085FD03C08AE330
:100480008093E80085E080934E019FBF80E008954F
:100490009B0140914F01411102C08FEF08954FB76A
:1004A000F89454E05093E90050914D01552341F0E8
:1004B0005091E80055FD02C04FBFEFCF10924D01A3
:1004C00054E060E47AE3A5E02115310511F480E001
:1004D0000895E091E400E75EF091E800F5FD12C0B8
:1004E0004FBF4091E4004E1304C081E080934D0162
:1004F000D4CF40914F01442381F24FB7F8945093E9
:10050000E900EACFE091F200B62FBE1BB217130646
:1005100011F008F0B22FEB2FF0E02E1B3F0BB1349F
:1005200008F03FC1ED56F94F0C945606FC0181913D
:100530008093F100CF01FC0181918093F100CF0104
:10054000FC0181918093F100CF01FC0181918093A6
:10055000F100CF01FC0181918093F100CF01FC01FA
:1005600081918093F100CF01FC0181918093F10092
:10057000CF01FC0181918093F100CF01FC018191B9
:100580008093F100CF01FC0181918093F100CF01B4
:10059000FC0181918093F100CF01FC018191809356
:1005A000F100CF01FC0181918093F100CF01FC01AA
:1005B00081918093F100CF01FC0181918093F10042
:1005C000CF01FC0181918093F100CF01FC01819169
:1005D0008093F100CF01FC0181918093F100CF0164
:1005E000FC0181918093F100CF01FC018191809306
:1005F000F100CF01FC0181918093F100CF01FC015A
:1006000081918093F100CF01FC0181918093F100F1
:10061000CF01FC0181918093F100CF01FC01819118
:100620008093F100CF01FC0181918093F100CF0113
:10063000FC0181918093F100CF01FC0181918093B5
:10064000F100CF01FC0181918093F100CF01FC0109
:1006500081918093F100CF01FC0181918093F100A1
:10066000CF01FC0181918093F100CF01FC018191C8
:100670008093F100CF01FC0181918093F100CF01C3
:10068000FC0181918093F100CF01FC018191809365
:10069000F100CF01FC0181918093F100CF01FC01B9
:1006A00081918093F100CF01FC0181918093F10051
:1006B000CF01FC0181918093F100CF01FC01819178
:1006C0008093F100CF01FC0181918093F100CF0173
:1006D000FC0181918093F100CF01FC018191809315
:1006E000F100CF01FC0181918093F100CF01FC0169
:1006F00081918093F100CF01FC0181918093F10001
:10070000CF01FC0181918093F100CF01FC01819127
:100710008093F100CF01FC0181918093F100CF0122
:10072000FC0181918093F100CF01FC0181918093C4
:10073000F100CF01FC0181918093F100CF01FC0118
:1007400081918093F100CF01FC0181918093F100B0
:10075000CF01FC0181918093F100CF01FC018191D7
:100760008093F100CF01FC0181918093F100CF01D2
:10077000FC0181918093F100CF01FC018191809374
:10078000F100CF01FC0181918093F100CF01FC01C8
:1007900081918093F100CF01FC0181918093F10060
:1007A000CF01FC0181918093F100CF01E091E8003D
:1007B000E5FF7093E800A0934E014FBF85CE8FB741
:1007C000F89490914E01992341F094E09093E900C0
:1007D0009AE39093E80010924E018FBF0895CF9353
:1007E000DF9300D000D0CDB7DEB780910C0190919F
:1007F0000D01A0910E01B0910F01BC01CD010F9030
:100800000F900F900F90DF91CF910895809110017C
:1008100008958091110108958091120108958091A9
:100820004C0108959FB7F89420914F01211103C006
:100830009FBF8FEF089522E02093E9002091E80008
:1008400025FFF6CF21EA2093F10020E22093F1006A
:100850001092F1001092F1001092F1001092F1004C
:1008600021E02093F1001092F1008093F1008AE3DF
:100870008093E8009FBF80E008951F921FB61F92EB
:1008800011248F939F938091E1001092E10083FFE8
:1008900011C01092E90091E09093EB001092EC00EF
:1008A00092E19093ED0098E09093F00010924F0148
:1008B00010924C0182FF13C080914F01882379F080
:1008C00080914E01882359F0815080934E0181110F
:1008D00006C084E08093E9008AE38093E8009F915A
:1008E0008F911F901FBE1F9018951F920F920FB6E9
:1008F0000F921124EF92FF920F931F932F933F9328
:100900004F935F936F937F938F939F93AF93BF9317
:10091000CF93DF93EF93FF931092E9008091E8006B
:1009200083FF71C0D091F100C091F100E090F1001F
:100930008091F100F82E0091F1008091F100182FC4
:100940002091F1003091F10082EF8093E800C630F1
:1009500009F065C08CEA90E046ED50E0FC0165913D
:100960007491E616F70609F049C0FC0132966591CC
:1009700074910617170709F041C0FC0134964591A0
:1009800054910696FC0184912F3F310519F010F027
:100990002FEF30E0281708F4822F3EEF9091E80007
:1009A000292F2570D9F392FD12C0982F813108F0BC
:1009B00090E1FA01292F21112CC0490F511D282F38
:1009C000291B3093E800891322C0803100F5FF9184
:1009D000EF91DF91CF91BF91AF919F918F917F91D7
:1009E0006F915F914F913F912F911F910F91FF90C8
:1009F000EF900F900FBE0F901F9018950796481715
:100A0000590709F0ABCF81E28093EB00E0CF822F52
:100A1000C5CF64916093F10021503196CCCFC530A1
:100A200051F48EEF8093E8000E94DE008E2D8068E6
:100A30008093E300CCCFC93069F5D111E4CFE092C7
:100A40004F0110924C0110924E018EEF8093E800FE
:100A500021E089E691E02093E900AC014F5F5F4F10
:100A6000FC0134913093EB00332391F0FA0144916F
:100A70004093EC003196E4910396E093ED002F5FF4
:100A8000253049F78EE18093EA001092EA009FCF6B
:100A9000CA01F5CFC83069F4D03809F0B4CF0E944C
:100AA000DE0080914F018093F1008EEF8093E8008B
:100AB0008ECFC13289F4D13A09F0A5CF0E94DE0071
:100AC0008CE091E0FC01019620812093F100F1E09F
:100AD00083319F07B9F7E9CFC032B1F4D13209F0C1
:100AE00092CF8091E80082FFFCCF8CE091E0FC0186
:100AF00001962091F100208321E083319207B9F71C
:100B00008BEF8093E800D1CFC23241F4D13209F0AB
:100B10007ACFE0924C010E94DE00C7CFC11112C013
:100B20000E94DE00D23849F40093E900C091EB0046
:100B3000C5FBCC27C0F91092E900C093F1001092D8
:100B4000F100B3CF8C2F8D7F813009F05CCFD23094
:100B500009F059CFEF2809F056CF0F778FEF800FAC
:100B6000843008F050CF8EEF8093E8000093E900C6
:100B7000C33009F448CF89E18093EB0081E090E035
:100B800001C0880F0A95EAF77ECF80914C0180FF63
:100B9000FFCF0C945101EF92FF920F931F93CF93CD
:100BA000DF93D82FF92EE62EC0E0CE1540F08C2F23
:100BB000DF91CF911F910F91FF90EF9008950E94C8
:100BC0002E019C012F3F3207B9F02D30310579F30A
:100BD0002A30310561F3C90180978F35910528F7D7
:100BE0000D2F1F2DF80121938F01822F0E94640188
:100BF000CF5FD02FF12ED9CF80914F01882321F0E4
:100C000080914C0180FDD1CFCFEFD1CF0E94D90090
:100C1000D0E0C0E0E0910201F091030183E191E0B6
:100C20000995E0910601F0910701CE010995E09147
:100C30000401F09105010995E0910201F091030191
:100C400081E291E009958091D800E0910801F0914E
:100C500009010995E0910401F09105010995E091E0
:100C60000201F091030187E391E009958091D8009A
:100C7000E0910A01F0910B010995E0910401F091D6
:100C80000501099500910A0110910B010E94EF03E3
:100C9000862FF80109952196FFEF23ED80E3F150AF
:100CA00020408040E1F700C00000B4CFEE0FFF1FEE
:100CB0000590F491E02D0994BB274A3031F4992333
:100CC00022F4BDE2909581959F4F0C946806BB2756
:100CD000FB015527AA27880F991FAA1FA41710F0F8
:100CE000A41B83955051B9F7A05DAA3308F0A95D04
:100CF000A193009779F7B111B1931192CB010C94A4
:100D00008106DC01FC01672F71917723E1F73297AF
:100D100004C07C916D9370836291AE17BF07C8F3D6
:100D20000895F894FFCFD603D103CC03C703C203C1
:100D3000BD03B803B303AE03A903A4039F039A033F
:100D4000950390038B03860381037C03770372036F
:100D50006D03680363035E03590354034F034A039F
:100D6000450340033B03360331032C0327032203CF
:100D70001D03180313030E0309030403FF02FA0201
:100D8000F502F002EB02E602E102DC02D702D20237
:100D9000CD02C802C302BE02B902B402AF02AA0267
:080DA000A502A0029B029602CD
:100DA800FF00A401B101B501D201020200E1000077
:100DB80000000848656C6C6F20576F726C643A20AD
:100DC8000055534220526567697374657220426901
:100DD8006E6172793A2000555342205265676973F3
:0C0DE800746572204865783A20000A000B
:00000001FF
