:100000000C9456000C946B000C946B000C946B00D9
:100010000C946B000C946B000C946B000C946B00B4
:100020000C946B000C946B000C946B000C946B00A4
:100030000C946B000C946B000C946B000C946B0094
:100040000C946B000C946B000C946B000C946B0084
:100050000C946B000C946B000C946B000C946B0074
:100060000C946B000C946D000C946B000C946E005F
:100070000C946B000C946B000C946B000C946B0054
:100080000C946B000C946B000C946B000C946B0044
:100090000C946B000C946B000C946B000C946B0034
:1000A0000C946B000C946B000C946B0011241FBE1D
:1000B000CFEFDAE0DEBFCDBF11E0A0E0B1E0EEE5CA
:1000C000F2E002C005900D92A230B107D9F70E946C
:1000D000D6000C942D010C94000018958F9381E0AC
:1000E000809300018F911895CF93DF9300D000D0BB
:1000F000CDB7DEB79B01592FA8E0411101C0A0E1A7
:100100001092CD00B0E0482F0E94130169837A83DA
:100110008B839C8360E074E284EF90E029813A81D4
:100120004B815C810E94F10081E021303105410565
:10013000510509F480E08093CC008091C900886D5E
:100140008093C9008EE08093CA000F900F900F90AB
:100150000F90DF91CF910895909100019923E1F3E1
:10016000109200018093CE0008950F931F93CF93B8
:10017000DF93EC018C01060F171FC017D10729F47C
:10018000DF91CF911F910F91089589910E94AC004A
:10019000F4CFCF93DF93EC0189910E94AC0088816A
:1001A0008111FACFDF91CF910C94AC003F9A40E0DF
:1001B00060E072EC81E090E00E9474007894C1E409
:1001C0008C2F0E94AC00CF5FCB3508F0C1E42FEF3D
:1001D00089E698E1215080409040E1F700C000009E
:1001E000EFCFA1E21A2EAA1BBB1BFD010DC0AA1F57
:1001F000BB1FEE1FFF1FA217B307E407F50720F090
:10020000A21BB30BE40BF50B661F771F881F991F0A
:100210001A9469F760957095809590959B01AC0153
:10022000BD01CF0108950E941E01A59F900DB49FAE
:10023000900DA49F800D911D11240895A29FB001DF
:10024000B39FC001A39F700D811D1124911DB29F0A
:0E025000700D811D1124911D0895F894FFCFAB
:02025E0001009D
:00000001FF
